:04000000020029329F
:01000B0032C2
:0100130032BA
:01001B0032B2
:0300230002024195
:1E008200750800750D09750E03750F0675100C75110C75120675130375140902002653
:03002600020523AD
:2000A000758400758841758920758E18758DAF75840075C80475C90A75CA3C75CBF67584F3
:2000C0000275C80475C90275CA8D75CB34227584007598702275840075C04175CFE9227570
:2000E0008400759A4075F801759D7C2275840075E8802275840075D4042275840075D1036D
:200100002275840F75A4F575A5FE75A6FF75A7FF75E10675E3402275840F758C677EB87F1F
:200120000BEE24FFFCEF34FFFD8C068D07EC4D70F0E58C30E7FB7597012275A89022120036
:20014000A01200CE1200D51200DF1200EC1200F31200FA12010112011712013A22AE82AFAC
:20016000834389015389FDEE4F601975FFA5C28CC28D758A58758C9ED28C308DFD1EBEFF01
:20018000011F80E322AE82AF8375FFA58E05C2A3759B0230F9FD8F9B30F9FD8D9B30F9FD71
:2001A00075FFA5851C9B30F9FDC2FF10FF0280FBD2A375FFA522AE82AF8375FFA58E05C2F7
:2001C000A3759B0330F9FD8F9B30F9FD8D9B30F9FD75FFA5759B0030F9FDC2FF10FF028004
:2001E000FBD2A375FFA5859B82227E007F0075FFA5751C008E828F83C007C006120185D0F4
:2002000006D0070EBE00010FC3EE94FFEF940040DD22AF8274F855BC451CF5BC8FBBD2EC57
:200220000020ECFDAFBF7E00ACBE7D00EC4EF582ED4FF5832285829910990280FB75FFA57C
:2002400022309808750801859909C298327438C0E0740AC0E0120554158115817E007F007D
:200260007C007D00EC2411F987B0900003C007C006C005C00412015DD004D005D006D007C5
:200280000CBC00010DC3EC9404ED6480948040D40EBE00010FC3EE94B6EF6480948340C087
:2002A000227444C0E0740AC0E0120554158115817E007F007C007D00EC240DF987B090003C
:2002C00003C007C006C005C00412015DD004D005D006D0070CBC00010DC3EC9404ED648051
:2002E000948040D40EBE00010FC3EE94B6EF6480948340C022751C07758201120212AE820D
:20030000AF83C3EE94E8EF94035004D2858002C28590000212015D22750A017450C0E07408
:200320000AC0E012055415811581E50A70030203B0E5086023744DB5091B745DC0E0740A6C
:20034000C0E012055415811581751C00900001120185750A0075080075FFA59000021201F2
:20036000B685820C209021E50C603C751C009000021201857475C0E0740AC0E01205541574
:200380008115811202A1801FE50C701B751C019000021201857497C0E0740AC0E012055486
:2003A0001581158112024D75FFA51202F502032A9001F412015D22750B0174B7C0E0740A7E
:2003C000C0E01205541581158174C0C0E0740AC0E01205541581158174D4C0E0740AC0E057
:2003E0001205541581158174E5C0E0740AC0E01205541581158174F9C0E0740AC0E0120576
:200400005415811581E50B700302051CE50870030205169000021201B685820C75FFA5745E
:2004200041B5091E740EC0E0740BC0E012055415811581751C01900001120185750B00028A
:2004400005137445B50934E50C701E751C01900002120185742AC0E0740BC0E012055415C1
:2004600081158112024D0205137446C0E0740BC0E0120554158115810205137452B509320A
:20048000E50C601D751C009000021201857460C0E0740BC0E0120554158115811202A180D4
:2004A00072747EC0E0740BC0E01205541581158180617448B5093E74C0C0E0740AC0E012E5
:2004C00005541581158174D4C0E0740AC0E01205541581158174E5C0E0740AC0E012055478
:2004E0001581158174F9C0E0740AC0E012055415811581801E749AC0E0740BC0E012055438
:200500001581158174AEC0E0740BC0E0120554158115817508001202F50204059001F4120F
:20052000015D2212013E75840074D3C0E0740BC0E0120554158115811201EA9000011201B3
:14054000B6AF8275FFA5EF600512031880ED1203B780E82263
:200A38004D4F544F525F41484F200A004D4F544F525F484F52200A004175746F6D61746965
:200A5800636F200A00416C746572616E646F2070617261206D616E75616C200A0076617213
:200A7800616C207265636F6C6869646F206175746F6D61746963616D656E7465200A0076B7
:200A98006172616C206578706F73746F206175746F6D61746963616D656E7465200A004D94
:200AB800616E75616C200A004D454E5520444520434F4D414E444F533A200A00452920455A
:200AD80078706F7220766172616C200A005229205265636F6C68657220766172616C200AA6
:200AF800004129204D6F646F206175746F6D617469636F200A00416C746572616E646F208B
:200B180070617261206175746F6D617469636F200A00566172616C206578706F73746F2051
:200B38006D616E75616C6D656E7465200A004F20766172616C206A612065737461206578A2
:200B5800706F73746F2E0A00566172616C207265636F6C6869646F206D616E75616C6D65D1
:200B78006E7465200A004F20766172616C206A612065737461207265636F6C6869646F2EA8
:200B98000A00436F6D616E646F20696E76616C69646F2E200A005072657373696F6E6520CC
:200BB80048207061726120636F6D616E646F732076616C69646F732E200A00434F4D4543CC
:050BD8004F55200A004A
:20055400C01B85811BE51B24FDF8868318868218E493A3B42577C200C201C202C203C204F3
:20057400C20579157700C206E493A324C64017240A50157005B51502D205D204FAE775F0B1
:200594000AA42AF780E2240A2430B46C04D20080D7B46804D20180D0B473030205ECB464CF
:2005B400061208C6020648B475061208C6020668B4630518E6188017B47803020627B46631
:2005D4000302077CB42E0679167700809B60061209B80205640209D2C083C08286F018865C
:2005F4008318868218300419C205C082C083120A186007A31515E51570F41209A3D083D0EC
:2006140082120A186006A31209B880F5D082D08302056412063F20010C12063F300006128C
:20063400063F12063F1209CA020564E61209A8E6180209A9ED30E71CD203E9F42401F9204F
:200654000112EAF43400FA30000AEBF43400FBECF43400FC200110300008EB7024EC7021AA
:20067400C200EA701CD201E97017200614300409E515600515151209A374301209B80205AF
:2006940064C082C0831208E0300460790A30001DEB54F0703619EB540F703019EA54F0706C
:2006B4002A19EA540F702419EF54F0701E790520010BEF540F701419EE54F0700E7903EE75
:2006D400540F700719ED54F0700119E515A203994019F515C003C002C007C006C0051209CB
:2006F400A3D005D006D007D002D003300319C003C002C007C006C005742D1209B8D005D0E0
:2007140006D007D002D00320014030002CC005C006C0078A82EBF5831209A8E5831209A9D6
:20073400E5821209A8E5821209A9D0E0F5821209A8E582D083D08280058D828E83EF1209AB
:20075400A9E5831209A8E58380038D82EE1209A9E5821209A8E5821209A91209CAD083D0A8
:20077400823006012202056430040EE515D39516F51550287515008023E6547FFA18860362
:2007940008AE82AF83900DA97D07E4932BA3E4933A5003A3DDF48D168E828F83C0001208B5
:2007B400A8C082C083EFB47E02801940112482FDC3EA33FAEB33FBEC33FCDDF48006F424CB
:2007D4007F1209D575F01BE4F8FFFEFD900D3DE933F9EA33FAEB33FBEC33FC5017E4932DFB
:2007F400D4FD7401933ED4FE7402933FD4FF74039338D4F8A3A3A3A3D5F0D4E47C50FBFA09
:20081400F9E516232354FC88831209D5ED29D4F51AEE3AD4F519EF3BD4F518E5833CD4F5C4
:200834001792D5D083D082D0001208A8C000C3749E9F5005D00002057CC0821209D5D0828F
:2008540030D50FE92401F9E43AFAE43BFBE43CFC40E2D20612066820040CE51660081208F4
:20087400987003D516F4E5166015742E1209B87800D20208E81208981209A9E8B516F4D06C
:200894000002056414C31392D52417F9E720D501C4540F22E618F9E618FC33E9339203FF5A
:2008B4006003430480E618FBE618FA7900C201D20022E6F9FD18200112AA01E6F9183000E0
:2008D4000AAC02AB01E6FA18E6F91822E975F06484FE740AC5F084C445F0FD30010122EA70
:2008F400540FF9900BDD932DD4FDE94410933ED4FEEAC4540FF9900BFD932DD4FDE944102F
:20091400933ED4FEE94420933400D4FF20000122EB540FF9900C2D932DD4FDE94410933E47
:20093400D4FEE94420933FD4FFE43400FAEBC4540FF9900C5D932DD4FDE94410933ED4FE58
:20095400E94420933FD4FFE94430933AD4FAEC540FF9900C9D7B00120976ECC4540FF99070
:200974000CED932DD4FDE94410933ED4FEE94420933FD4FFE94430933AD4FAE94440933BD4
:20099400D4FB22742030050274301209B81515E51570F022C4540F7003300219D2022490FD
:2009B400D43440D4C083C082C000F582120235D000D082D083222002FC74300209B8D01BFB
:0109D4002200
:200BDD000056126824803692480460167228844000020507101215172023252830333538E0
:200BFD00009692888480767268646056524844400040812263044586276809509132731455
:200C1D00000000010102020203030404040505060036720844801652882460963268044031
:200C3D00005510662176328742985308641975300006131926323945525865727885919876
:200C5D000076522804805632088460361288644000857157432814008671574329140086FB
:200C7D00000409141924293438434853586368720001020304050607080910111213141555
:200C9D0000163248648096122844607692082440007244168860320577492193653810824D
:200CBD0000775533108866442199775432108865001633506783001734506784011834517B
:200CDD0000000000000001010101010102020202005612682480369248046016722884408D
:200CFD000054096318722781369145005409631800438730741761044891357922660953AC
:200D1D000068360573421079471584522189582600020508101316182124262932343740AA
:200D3D00000000500000002500005012000025060050120300255601501278002506390075
:200D5D001253190056760900288804001444020007220100046100005230000026150000C9
:200D7D006307000081030000910100009500000048000000240000001200000006000000BD
:1A0D9D000300000001000000010000007DC5DDC334C2E0BE38BD86BBE4B9EE
:06005800E478FFF6D8FD7C
:2009D5006040F82582500274FFF582E824F8501ECCCBCAF9E4CC24F85014CBCAF9E4CB242A
:2009F500F8500BCAF9E4CA24F8500379002224086010F8C3EC13FCEB13FBEA13FAE913F9DD
:030A1500D8F122F3
:200036007900E94400601B7A00900DB7780175A200E493F2A308B8000205A2D9F4DAF275A8
:02005600A2FF07
:20005E007800E84400600A790175A200E4F309D8FC7800E84400600C7900900001E4F0A39E
:04007E00D8FCD9FAD7
:0D002900758120120A34E582600302002672
:1C0A180020F71430F6148883A88220F507E6A88375830022E280F7E49322E022ED
:040A340075820022A5
:00000001FF
